:100000000C94AD000C94CC000C94CC000C94CC005F
:100010000C94CC000C94CC000C94CC000C94CC0030
:100020000C94CC000C94CC000C94CC000C94CC0020
:100030000C94A0380C94CC000C94CC000C94CC0004
:100040000C94CC000C94CC000C949D390C94CC00F6
:100050000C9421390C94CC000C94CC000C94CC0062
:100060000C94CC000C94CC000C94D2380C94CC00A2
:100070000C94CC000C94CC000C94CC000C94CC00D0
:100080000C942C3A0C94CC000C94CC00084AD73B2E
:100090003BCE016E84BCBFFDC12F3D6C74319ABD57
:1000A00056833DDA3D00C77F11BED9E4BB4C3E917B
:1000B0006BAAAABE000000803F05A84CCDB2D44E6A
:1000C000B93836A9020C50B9918688083CA6AAAA6C
:1000D0002ABE000000803F240AB8061405640A28DE
:1000E0000A8C0A8C0A8C0A4D08FC089006C508790F
:1000F00009DB0B8A076405020D0C0D01FFFFFF01F0
:100100000101FFFFB40AB40A600960097206880998
:100110008809900601FF0101240AB8061405640A43
:10012000280A8C0A8C0A8C0A4D088C0AF80CC30A1F
:10013000230AAD07FE0B240E86067C0601FFFFFF97
:10014000010101FFFFB40AB40A60096009160D0A33
:100150000AF609F80C01FF01010011241FBECFEFC0
:10016000D0E1DEBFCDBF11E0A0E0B1E0E2E6FDE707
:1001700000E00BBF02C007900D92AE36B107D9F771
:1001800012E0AEE6B1E001C01D92A237B107E1F77F
:100190000E942F030C94AF3E0C940000CF93DF938A
:1001A000CDB7DEB786E290E023E8FC01208387E24A
:1001B00090E020E4FC012083DF91CF9108950F931C
:1001C0001F93CF93DF93CDB7DEB76B970FB6F8943D
:1001D000DEBF0FBECDBF8B8F87E290E02B8D2064FA
:1001E000FC01208386E290E026E230E0F9012081E4
:1001F0002064FC01208380E090E0A0EAB1E48B83DE
:100200009C83AD83BE836B817C818D819E812AEF2F
:100210003DEE4BE650E40E94583DDC01CB018F835C
:100220009887A987BA8711E06F81788589859A8533
:1002300020E030E040E85FE30E949D3B88230CF023
:1002400010E0112319F081E08B87A3C011E06F81CA
:10025000788589859A8520E030E04FE753E40E9455
:100260004D3D18160CF010E0112309F489C06B8184
:100270007C818D819E8120E030E04AE754E40E9439
:10028000A43BDC01CB018C879D87AE87BF876C8543
:100290007D858E859F852DEC3CEC4CE255E40E94DB
:1002A000583DDC01CB01888B998BAA8BBB8B11E06D
:1002B000688979898A899B8920E030E040E85FE39A
:1002C0000E949D3B88230CF010E0112329F081E06F
:1002D00090E09D8B8C8B46C011E0688979898A8972
:1002E0009B8920E03FEF4FE757E40E944D3D1816F1
:1002F0000CF010E0112361F16C857D858E859F8562
:1003000020E030E040E251E40E94583DDC01CB01A6
:10031000BC01CD010E94113CDC01CB019D8B8C8B7B
:1003200012C084E191E09F8B8E8B8E899F898C0116
:10033000C8010197F1F78C011F8B0E8B8C899D8969
:1003400001979D8B8C8B8C899D89009751F729C0D3
:10035000688979898A899B890E94113CDC01CB01DB
:100360009D8B8C8B8C899D89998F888F888D998D99
:100370008C01F8013197F1F78F01198F088F11C0A7
:100380006F81788589859A850E94113CDC01CB01BB
:100390008B878B858A8F8A8D182F1A95F1F71A8F84
:1003A00000C0000086E290E0FC01808182958F70A1
:1003B000882F90E0817090700097A1F386E290E022
:1003C00026E230E0F90120812061FC01208384E2F3
:1003D00090E0FC018081282F30E085E290E0FC0174
:1003E0008081882F90E0982F8827822B932B9A83E7
:1003F000898389819A816B960FB6F894DEBF0FBE10
:10040000CDBFDF91CF911F910F910895CF93DF93CF
:10041000CDB7DEB729970FB6F894DEBF0FBECDBFBC
:10042000898780E090E0DC018D839E83AF83B8876D
:1004300089858F3F89F480E00E94DF00CC01A0E035
:10044000B0E0BC01CD010E943D3CDC01CB018983C1
:100450009A83AB83BC8310C087E00E94DF00CC018D
:10046000A0E0B0E0BC01CD010E943D3CDC01CB012D
:1004700089839A83AB83BC8369817A818B819C81D8
:1004800020E030E040EA50E40E94D73ADC01CB01A2
:100490009C01AD0160E070E286E395E40E94A43B1C
:1004A000DC01CB01BC01CD0120E030E040EC5FE39A
:1004B0000E94D63ADC01CB018D839E83AF83B8873F
:1004C0006D817E818F8198850E94113CDC01CB017A
:1004D00029960FB6F894DEBF0FBECDBFDF91CF9146
:1004E00008950F931F93CF93DF93CDB7DEB7659732
:1004F0000FB6F894DEBF0FBECDBF8B8B7D8B6C8BA0
:1005000019821A8297C080E090E0A0EAB1E48D835E
:100510009E83AF83B8876D817E818F8198852DEC16
:100520003CEC4CE255E40E94583DDC01CB0189874C
:100530009A87AB87BC8711E069857A858B859C8516
:1005400020E030E040E85FE30E949D3B88230CF010
:1005500010E0112329F081E090E09E878D8746C04E
:1005600011E069857A858B859C8520E03FEF4FE718
:1005700057E40E944D3D18160CF010E0112361F174
:100580006D817E818F81988520E030E040E251E4EA
:100590000E94583DDC01CB01BC01CD010E94113C01
:1005A000DC01CB019E878D8712C084E191E0988B9E
:1005B0008F878F8598898C01C8010197F1F78C018D
:1005C000188B0F878D859E8501979E878D878D85DA
:1005D0009E85009751F717C069857A858B859C8524
:1005E0000E94113CDC01CB019E878D878D859E8505
:1005F0009A8B898B89899A898C01C8010197F1F7B7
:100600008C011A8B098B8B890E9406029C838B8339
:100610008B819C818531910550F02C893D898B819E
:100620009C818217930718F489818F5F89838A815F
:100630008F5F8A838A81853008F465CF8981853010
:1006400011F481E001C080E065960FB6F894DEBF3A
:100650000FBECDBFDF91CF911F910F910895DF9312
:10066000CF93CDB7DEB70E94FE3780E00E94E9222B
:1006700081E060E00E94151680E061E00E9414278E
:1006800080E091E00E946D260E944438882349F45E
:1006900088E061E00E94142789E091E00E946D26C5
:1006A00008C088E061E00E9414278FE091E00E947A
:1006B0006D2680E060E00E94142786E191E00E94B0
:1006C0006D2680E060E00E94142786E191E00E94A0
:1006D0006D260E948836882369F00E94A036882300
:1006E00049F088E060E00E9414278FE191E00E94C9
:1006F0006D2637C00E948836882369F40E94A03690
:10070000882349F488E060E00E94142786E291E0A3
:100710000E946D2626C00E948836882349F088E012
:1007200060E00E9414278FE291E00E946D2619C0BC
:1007300088E060E00E94142788E391E00E946D2623
:1007400010C00E944837882361F083E462E30E946E
:10075000F8340E9448378823E1F783E460E00E9480
:10076000F8340E94B836882361F70E9490370E94BF
:100770004438882319F40E94DA04F9CF0E94750DD9
:10078000F6CFCF93DF93CDB7DEB781E468E20E9466
:10079000F83482E46CE80E94F83400000E94E836E5
:1007A0008823E1F30E9400378823C1F381E460E0ED
:1007B0000E94F83482E460E00E94F834DF91CF9127
:1007C0000895CF93DF93CDB7DEB781E46CE80E9444
:1007D000F83482E468E20E94F83400000E94303766
:1007E0008823E1F30E9418378823C1F381E460E095
:1007F0000E94F83482E460E00E94F834DF91CF91E7
:100800000895CF93DF93CDB7DEB783E466E90E9406
:10081000F8346CEA7DE080E090E00E94AA3583E441
:1008200060E00E94F834DF91CF910895CF93DF9379
:1008300000D0CDB7DEB789836A838981823441F4E1
:100840008A81982F9C5982E4692F0E94F83404C051
:1008500081E46A810E94F83468E770E080E090E00B
:100860000E94AA350E94E1030F900F90DF91CF9173
:100870000895CF93DF93CDB7DEB781E060E00E94AB
:10088000151680E060E00E94142780E491E00E9449
:100890006D2680E061E00E94142784E491E00E94CC
:1008A0006D2684E060E00E9414270E94712764E0B6
:1008B00070E00E948A2684E061E00E9414270E9472
:1008C000AD2764E070E00E948A26DF91CF91089501
:1008D000CF93DF9300D000D000D0CDB7DEB70E9419
:1008E0004D38DC01CB0189839A83AB83BC8381E0E3
:1008F00060E00E94151680E060E00E94142788E402
:1009000091E00E946D2689819A81AB81BC8128EE9D
:1009100033E040E050E0BC01CD010E945E3EDA01D0
:10092000C9019E838D8389E060E00E9414278D8138
:100930009E8162E070E00E948A2626960FB6F894A7
:10094000DEBF0FBECDBFDF91CF910895CF93DF9370
:1009500000D0CDB7DEB789836A838981823019F0F0
:100960008981882391F48A818F3F31F40E947837FE
:10097000882311F081E019C08A81813031F40E940E
:100980006037882311F081E010C08981823019F02E
:100990008981813049F48A816CE370E00E947102A0
:1009A000882311F081E001C080E00F900F90DF916B
:1009B000CF910895EF920F931F93DF93CF93CDB70D
:1009C000DEB7A1970FB6F894DEBF0FBECDBF1F8E66
:1009D00081E08E8F1D8E1C8E1B8E84EC99E0998F8A
:1009E000888F82E08F8B0E948836882339F00E949E
:1009F000A036882319F081E08A8F13C00E948836C0
:100A0000882331F40E94A036882311F41A8E09C07D
:100A10000E948836882319F082E08A8F02C083E022
:100A20008A8F85EE9AE060E275E04DE551E00E9424
:100A3000ED280E94E1038F8D282F30E039A328A3F1
:100A400088A199A18130910509F462C428A139A136
:100A50002230310509F4BEC588A199A1009759F744
:100A60008C8D8D8F50C48D8D882F90E0880F991FAD
:100A700089529F4F9E8B8D8B8D899E89FC0185911C
:100A800094919C8B8B8BFE8BED8B8B899C89DC01ED
:100A90008D8D882F90E0880F991F87519F4F9A8BDB
:100AA000898B89899A89FC0185919491988B8F878C
:100AB000FA8BE98B8F859889BC018D8D882F90E00A
:100AC00085509F4F9E878D87ED85FE8584918C870D
:100AD0008C85482F288D398DCD0105E010E0EF88F9
:100AE0000E94BD2C882359F08D8D8C8F82E08F8FD2
:100AF00084EC99E0998F888F83E08F8B9CCF84EC76
:100B000099E0998F888F82E08F8B8D8D882309F0F3
:100B1000D2C00E946037882311F164E170E080E068
:100B200090E00E94AA3586E990E061E070E044EC34
:100B300059E023E000E010E00E94573364E170E0E8
:100B400080E090E00E94AA3586E990E06FEF7FEFA9
:100B500044EC59E023E000E010E00E9457330E948B
:100B6000E10385EF90E00E94A62A6AE070E080E051
:100B700090E00E94AA3586E990E061E070E044ECE4
:100B800059E023E000E010E00E94573381E46EE179
:100B90000E9416048CE890E061E070E044EC59E0BB
:100BA00023E000ED17E00E9457331B8E2CC08B8D85
:100BB0008F5F8B8F8B8D8330E1F41B8E80EA90E00A
:100BC0006FEF7FEF44EC59E023E000E010E00E947B
:100BD000573385EF90E00E94A62A82E890E061E01A
:100BE00070E044EC59E023E000E010E00E9457334D
:100BF0000AC081E46EE10E94160462E370E080E0C6
:100C000090E00E94AA358FEB90E00E94A62A8823EC
:100C100071F61B8E8EE091E061E070E044EC59E0EB
:100C200020E000E010E00E9457330BC08EE190E01E
:100C300061E070E044EC59E023E000E010E00E9445
:100C4000573382ED90E00E94A62A882379F78EE53B
:100C500091E061E070E044EC59E020E000E010E059
:100C60000E94573384EB90E00E94A62A65E070E072
:100C700080E090E00E94AA3584E091E061E070E0BD
:100C800044EC59E023E000ED17E00E94573365E0A3
:100C900070E080E090E00E94AA3582ED90E06FEF76
:100CA0007FEF44EC59E020E000E010E00E94573371
:100CB0000E94C10325C38D8D813011F41B8E20C38A
:100CC0008D8D823009F026C186E564EC79E00E94C2
:100CD0003C2789E690E00E94A62A0E94E10388E171
:100CE00091E061E070E044EC59E023E000ED17E0B2
:100CF0000E94573382E46DE20E9416048CE390E078
:100D000061E070E044EC59E023E000EB14E00E9465
:100D10005733882379F081E468E20E9416048AE060
:100D200090E061E070E044EC59E023E000EB14E077
:100D30000E94573382E46EE10E94160464E670E07C
:100D400080E090E00E94AA3582E46EE10E941604E1
:100D50000AC082E46EE10E9416046AE070E080E05E
:100D600090E00E94AA358AEA90E00E94A62A882391
:100D700081F78EE091E061E070E044EC59E020E022
:100D800000E010E00E94573365E070E080E090E002
:100D90000E94AA350BC082E390E061E070E044EC71
:100DA00059E023E000E010E00E94573382E890E031
:100DB0000E94A62A882379F78EEF91E061E070E027
:100DC00044EC59E022E000E010E00E94573382E456
:100DD00067E80E94F83481E463E20E94F8346EE62A
:100DE00070E080E090E00E94AA3582E460E00E941A
:100DF000F83481E460E00E94F83487E890E061E034
:100E000070E044EC59E020E000ED17E00E94573319
:100E100084EB90E00E94A62A8CE890E061E070E00C
:100E200044EC59E023E000ED17E00E94573365E001
:100E300070E080E090E00E94AA3580E491E06FEFDE
:100E40007FEF44EC59E020E000E010E00E945733CF
:100E50008EE091E00E94A62A88EC90E06FEF7FEF91
:100E600044EC59E022E000E010E00E9457330E9479
:100E7000C1031B8E8A8D823031F08A8D882369F4FC
:100E80008E8D882351F48EE091E00E94A62A0E9464
:100E9000E10384E08C8F1F8ECECD8A8D833041F0AC
:100EA0008A8D813009F02CC28E8D882309F028C2EA
:100EB0008EE091E00E94A62A17C062E370E080E015
:100EC00090E00E94AA3584E190E061E070E044EC9B
:100ED00059E023E000E010E00E94573364EF71E036
:100EE00080E090E00E94AA358CE89AE06BE277E01F
:100EF0004FEF24EC39E005E010E0EE246894E1F8CF
:100F00000E94BD2C8823C9F687E08C8F1F8E82E05B
:100F10008F8B91CD8D8D833009F073C00E94C103FA
:100F20008A8D833019F18A8D823001F184EB90E053
:100F30000E94A62A84E690E06FEF7FEF44EC59E030
:100F400020E000E010E00E94573365E070E080E0B0
:100F500090E00E94AA3584E690E061E070E044EC05
:100F600059E023E000E010E00E9457338A8D83307F
:100F700011F481E08A8F8A8D823009F41A8E80E123
:100F800091E00E94A62A83E466E90E94F83488EE84
:100F900093E06FEF7FEF48EE53E023E000ED17E0C2
:100FA0000E9457330E94010480E491E061E070E008
:100FB00044EC59E020E000E010E00E94573383E465
:100FC00066E90E94F83468E572E080E090E00E94F3
:100FD000AA3583E460E00E94F8348E8D882329F4DA
:100FE00081E08F8F83E08C8F26CD8A8D882331F02E
:100FF00087E08C8F1F8E82E08F8B1DCD0E94E103D6
:101000007FC18D8D8430E9F585EF90E00E94A62A9E
:101010008CE890E061E070E044EC59E023E000E00F
:1010200010E00E94573381E463E20E9416048FE5CA
:1010300090E061E070E044EC59E023E000ED17E05F
:101040000E94573383EC90E00E94A62A86E990E044
:1010500061E070E044EC59E023E000E010E00E9421
:10106000573385EA90E00E94A62A8CE291E061E085
:1010700070E044EC59E022E000E010E00E945733B9
:101080003FC18D8D8530B1F50E943037882321F422
:101090000E9418378823B9F081E463E20E94F83493
:1010A00082E467E80E94F8346EE670E080E090E049
:1010B0000E94AA3581E460E00E94F83482E460E096
:1010C0000E94F8341DC181E467E80E94F83482E48C
:1010D00063E20E94F8346AEA70E080E090E00E94E7
:1010E000AA3581E460E00E94F83482E460E00E9466
:1010F000F83406C18D8D863081F582E462E30E946A
:10110000F83481E466E90E94F83462E370E080E03C
:1011100090E00E94AA3581E460E00E94F83482E405
:1011200060E00E94F8348A8D823021F08A8D83300D
:1011300009F0E6C08CED90E06FEF7FEF44EC59E0F2
:1011400022E000E010E00E9457330E94C10381E0DA
:101150008C8F81E08F8F1B8E6ECC8D8D873029F424
:101160000E94C10382E08F8BCBC08D8D883009F047
:10117000C7C00E94632A0E94E10380EA90E061E018
:1011800070E044EC59E022E000E010E00E945733A8
:1011900082E466E90E94F83481E462E30E94F83454
:1011A00066E470E080E090E00E94AA350E94E103CE
:1011B00084E690E061E070E044EC59E023E000ED6B
:1011C00017E00E94573382E466E90E94F83481E414
:1011D00062E30E94F83460E570E080E090E00E94F5
:1011E000AA350E94E1038AE590E061E070E044ECFA
:1011F00059E023E000ED17E00E94573382E466E9EE
:101200000E94F83481E462E30E94F83466E470E0FE
:1012100080E090E00E94AA350E94E10388E290E01D
:1012200061E070E044EC59E023E000ED17E00E943B
:10123000573382E46CE80E94F83481E468E20E944B
:10124000F8346EE571E080E090E00E94AA3581E418
:1012500060E00E94F83482E460E00E94F8346AE0C2
:1012600070E080E090E00E94AA3581E46AE00E948C
:10127000F83482E46EE60E94F8348EE591E06FEF78
:101280007FEF44EC59E020E000E010E00E9457338B
:1012900017C065E070E080E090E00E94AA358AE027
:1012A00090E06FEF7FEF44EC59E023E000E010E0C6
:1012B0000E94573368EE73E080E090E00E94AA3508
:1012C0000E94AD279C012C5330408CE39AE0B90179
:1012D00041E024EC39E005E010E0EE246894E1F808
:1012E0000E94BD2C8823A9F681E460E00E94F834B6
:1012F00082E460E00E94F8341F8E85E08C8F9BCBE7
:101300008D8D8F5F8D8F8D8D893008F4ACCB93CB15
:101310008C8D8D8F5AC18D8D882F90E0880F991FED
:101320008C5F9E4F9B878A878A859B85FC01859170
:10133000949199878887FB87EA8788859985BC017E
:101340008D8D882F90E0880F991F845F9E4F9F831B
:101350008E838E819F81FC01859194919D838C83E6
:10136000FF83EE838C819D81AC018D8D882F90E071
:101370008C5E9E4F9B838A83EA81FB818491898363
:101380008981282FCB01BA01422F24EC39E005E0F6
:1013900010E0EF880E94BD2C882361F082E08F8FDF
:1013A0008D8D8C598C8F84EC99E0998F888F82E099
:1013B0008F8B41CB82E08F8B84EC99E0998F888F63
:1013C0008D8D882309F4FEC08D8D813009F062C0B7
:1013D00084E690E06FEF7FEF44EC59E020E000E01E
:1013E00010E00E94573362E370E080E090E00E94DA
:1013F000AA3584E690E061E070E044EC59E023E037
:1014000000E010E00E9457338EE091E00E94A62A8F
:1014100083E466E90E94F83488EE93E06FEF7FEF93
:1014200048EE53E023E000ED17E00E9457330E949E
:10143000010480E491E061E070E044EC59E020E0D8
:1014400000E010E00E94573383E466E90E94F8341C
:1014500068EE73E080E090E00E94AA3583E460E0EB
:101460000E94F8348E8D882339F481E08F8F83E0D9
:101470008C8F82E08F8BDFCA8A8D882339F01F8E94
:1014800087E08C8F1A8E82E08F8BD5CA1F8E84E006
:101490008C8FD1CA8D8D823009F082C08EE091E0B0
:1014A0000E94A62A0E9471278C01025A1E4F0E9498
:1014B000AD279C01C801B9014FEF24EC39E005E0EC
:1014C00010E0EE240E94BD2C882319F162E370E045
:1014D00080E090E00E94AA3586E490E061E070E050
:1014E00044EC59E023E000E010E00E9457336CE246
:1014F00071E080E090E00E94AA358E8D882349F447
:1015000081E08F8F83E08C8F82E08F8B81E08E8FE4
:1015100092CA62E370E080E090E00E94AA3583E422
:1015200066E90E94F83488EE93E06FEF7FEF48EEB3
:1015300053E023E000ED17E00E9457330E940104BE
:1015400080E491E061E070E044EC59E020E000E0EC
:1015500010E00E94573383E466E90E94F83468EE95
:1015600073E080E090E00E94AA3583E460E00E948E
:10157000F8348E8D882339F481E08F8F83E08C8F4F
:1015800082E08F8B58CA8A8D882331F01F8E87E0C6
:101590008C8F82E08F8B4FCA1F8E84E08C8F4BCA5A
:1015A0008D8D833079F48AE590E00E94A62A1B8E07
:1015B0001F8E81E08C8F84EC99E0998F888F82E078
:1015C0008F8B39CA8D8D8F5F8D8F8D8D843008F410
:1015D000A2CE31CA8C8D882399F50E94603788236A
:1015E000F9F06AE070E080E090E00E94AA3586E9B8
:1015F00090E06FEF7FEF44EC59E023E000E010E073
:101600000E94573364EF71E080E090E00E94AA35B9
:1016100088EB9BE0998F888F83E08F8B1F8E0BCA9E
:101620000E94C1036CE271E080E090E00E94AA3564
:1016300088E29AE0998F888F1F8A1F8E1C8EFBC9C3
:101640008C8D813009F081C08B8D8F5F8B8F8B8D5E
:10165000833068F582E390E061E070E044EC59E0AB
:1016600023E000E010E00E94573364EF71E080E077
:1016700090E00E94AA351F8A1F8E81E08C8FDBC903
:1016800065E070E080E090E00E94AA358AE090E09A
:101690006FEF7FEF44EC59E023E000E010E00E94A0
:1016A00057336CEB72E080E090E00E94AA350E9414
:1016B000AD279C0180E199E0B90141E024EC39E0DB
:1016C00005E010E0EE246894E1F80E94BD2C882328
:1016D000B9F68E8D882341F506C064EF71E080E095
:1016E00090E00E94AA350E94AD279C0187E39AE012
:1016F000B90141E024EC39E005E010E0EE24689403
:10170000E1F80E94BD2C882341F78A8D882331F4AB
:101710001F8E84E08C8F0E94E1038DC91F8E87E0AD
:101720008C8F82E08F8B87C982E08F8B1E8E1F8EFD
:1017300083E08C8F8A8D833011F481E08A8F8A8DCB
:10174000823009F078C91A8E76C98C8D823009F002
:10175000C2C08B8D882391F464E873E080E090E050
:101760000E94AA351F8E82E08C8F88EE93E0998FBD
:10177000888F1F8A8B8D8F5F8B8F5DC98B8D8F5F5D
:101780008B8F8B8D833008F486C064EF71E080E02E
:1017900090E00E94AA3584E596E060E976E041E0B9
:1017A00024EC39E005E010E00F2EF3E0EF2EF02DF1
:1017B0000E94BD2C82E08F8B1B8E6CE271E080E07A
:1017C00090E00E94AA3528C08B8D8F5F8B8F8B8D08
:1017D000853058F01F8E84EC99E0998F888F82E0D5
:1017E0008F8B1B8E81E08C8F27C06AE070E080E0D9
:1017F00090E00E94AA3584E190E061E070E044EC62
:1018000059E023E000E010E00E94573364EF71E0FC
:1018100080E090E00E94AA3580E199E060E976E0FE
:101820004FEF24EC39E005E010E0EE246894E1F895
:101830000E94BD2C882341F61B8E8E8D813079F459
:101840001E8E1F8E83E08C8F8A8D833011F481E091
:101850008A8F8A8D823009F0EEC81A8EECC88A8D84
:10186000882331F40E94E1031F8E84E08C8FE3C84B
:101870008CE89AE06BE277E04FEF24EC39E005E08A
:1018800010E0EE246894E1F80E94BD2C1F8E87E0E2
:101890008C8F1F8AD0C86AE070E080E090E00E94E0
:1018A000AA358EE190E061E070E044EC59E023E07D
:1018B00000E010E00E94573364EF71E080E090E0B8
:1018C0000E94AA3582E08C8F1F8E84EC99E0998F5C
:1018D000888F1F8AB0C88C8D833099F468E572E0D8
:1018E00080E090E00E94AA350E94C10381E08B8FC6
:1018F0001F8A84EC99E0998F888F81E08F8F1C8EEE
:101900009AC88C8D843051F58A8D8230E9F40E941A
:10191000AD2729E0833E9207BCF082E390E061E0CE
:1019200070E044EC59E023E000E010E00E945733FF
:101930001F8E83E08C8F82E08F8B64EF71E080E0FC
:1019400090E00E94AA3577C864EF71E080E090E0F3
:101950000E94AA3582E08F8B1F8E6DC88C8D8730D8
:1019600071F58A8D833009F50E94AD2739E0833EF9
:101970009307DCF082E390E061E070E044EC59E032
:1019800023E000E010E00E9457331F8E83E08C8F2D
:10199000E5E6F0E08FEF808382E08F8B64EF71E00B
:1019A00080E090E00E94AA3546C864EF71E080E0D4
:1019B00090E00E94AA3582E08F8B1F8E3CC88C8DF0
:1019C000883001F564EF71E080E090E00E94AA3574
:1019D0008A8D8330B9F40E94AD279C018CE89AE08F
:1019E000B90141E024EC39E005E010E00F2EF3E00E
:1019F000EF2EF02D0E94BD2C1F8E83E08C8F82E095
:101A00008F8B19C88C8D853699F564EF71E080E075
:101A100090E00E94AA358B8D8F5F8B8F8B8D8430E9
:101A200058F08E8D882341F481E08F8F83E08C8F76
:101A300081E08E8F0C941B0564EF71E080E090E0F4
:101A40000E94AA3584EB9AE060EE76E041E024EC57
:101A500039E005E010E00F2EF3E0EF2EF02D0E94AC
:101A6000BD2C81E08F8F82E08C8F1F8A0C941B0528
:101A70008C8D8636E9F464EF71E080E090E00E949E
:101A8000AA358B8D8F5F8B8F8B8D843060F08E8D20
:101A9000882349F41B8E81E08E8F81E08F8F83E055
:101AA0008C8F0C941B0581E08F8F1C8E0C941B0572
:101AB0008C8D843678F082E08F8B68E572E080E070
:101AC00090E00E94AA358C8D84568C8F81E08F8F98
:101AD0000C941B0568E572E080E090E00E94AA3556
:101AE00082E08F8B1F8E0C941B05EF920F931F9338
:101AF000DF93CF93CDB7DEB7A1970FB6F894DEBFD3
:101B00000FBECDBF1F8E81E08E8F1D8E1C8E1B8E53
:101B100084EC99E0998F888F82E08F8B0E948836C1
:101B2000882339F00E94A036882319F081E08A8F3B
:101B300013C00E948836882331F40E94A03688237F
:101B400011F41A8E09C00E948836882319F082E0A9
:101B50008A8F02C083E08A8F85EE9AE068E67EE095
:101B60004FEB50E00E94ED280E94E1038F8D282F5B
:101B700030E039A328A388A199A18130910509F407
:101B80006AC428A139A12230310509F4C6C588A14B
:101B900099A1009759F78C8D8D8F58C48D8D882F02
:101BA00090E0880F991F885E9E4F9E8B8D8B8D894C
:101BB0009E89FC01859194919C8B8B8BFE8BED8B88
:101BC0008B899C89DC018D8D882F90E0880F991F6F
:101BD000865D9E4F9A8B898B89899A89FC018591B4
:101BE0009491988B8F87FA8BE98B8F859889BC01AC
:101BF0008D8D882F90E0845C9E4F9E878D87ED852C
:101C0000FE8584918C878C85482F288D398DCD0158
:101C100005E010E0EF880E94BD2C882359F08D8DDF
:101C20008C8F82E08F8F84EC99E0998F888F83E08E
:101C30008F8B9CCF84EC99E0998F888F82E08F8B7B
:101C40008D8D882309F0D5C00E946037882311F15B
:101C500064E170E080E090E00E94AA3586E990E0BF
:101C600061E070E044EC59E023E000E010E00E9405
:101C7000573364E170E080E090E00E94AA3586E985
:101C800090E06FEF7FEF44EC59E023E000E010E0DC
:101C90000E9457330E94E10386E564EC79E00E94DC
:101CA0003C2787E291E00E94A62A6AE070E080E08B
:101CB00090E00E94AA3582E890E061E070E044EC98
:101CC00059E023E000E010E00E94573382E46EE127
:101CD0000E94160481E990E061E070E044EC59E074
:101CE00023E000ED17E00E9457331B8E2CC08B8D34
:101CF0008F5F8B8F8B8D8430E1F41B8E80EA90E0B8
:101D00006FEF7FEF44EC59E023E000E010E00E9429
:101D1000573387E291E00E94A62A8CE890E061E0C8
:101D200070E044EC59E023E000E010E00E945733FB
:101D30000AC081E462E30E94160462E370E080E07E
:101D400090E00E94AA3580E691E00E94A62A8823AE
:101D500071F61B8E88E191E061E070E044EC59E09F
:101D600020E000E010E00E9457330BC08EE190E0CD
:101D700061E070E044EC59E023E000E010E00E94F4
:101D8000573389E491E00E94A62A882379F78EE5EB
:101D900091E061E070E044EC59E020E000E010E008
:101DA0000E9457330E94632A65E070E080E090E073
:101DB0000E94AA3584E091E061E070E044EC59E0D3
:101DC00023E000ED17E00E94573365E070E080E00B
:101DD00090E00E94AA358CED90E06FEF7FEF44EC2D
:101DE00059E020E000E010E00E9457330E94C10358
:101DF0002AC38D8D813011F41B8E25C38D8D8230C9
:101E000009F024C186E564EC79E00E943C278BE46C
:101E100090E00E94A62A0E94E10382E291E061E044
:101E200070E044EC59E023E000ED17E00E945733E6
:101E300081E46DE20E94160482E390E061E070E0CC
:101E400044EC59E023E000EB14E00E945733882370
:101E500079F082E468E20E9416048AE090E061E092
:101E600070E044EC59E023E000EB14E00E945733AB
:101E700081E46EE10E9416046AE570E080E090E083
:101E80000E94AA3581E46EE10E9416040AC082E431
:101E90006CE30E9416046AE070E080E090E00E942B
:101EA000AA358FE090E00E94A62A882381F784E07B
:101EB00091E061E070E044EC59E022E000E010E0E5
:101EC0000E94573365E070E080E090E00E94AA3500
:101ED0000BC082E390E061E070E044EC59E023E065
:101EE00000E010E00E94573382E390E00E94A62AAF
:101EF000882379F78EEF91E061E070E044EC59E0DF
:101F000023E000E010E00E94573382E467E80E947B
:101F1000F83481E463E20E94F8346EE670E080E019
:101F200090E00E94AA3582E460E00E94F83481E4E7
:101F300060E00E94F83487E890E061E070E044ECF3
:101F400059E023E000ED17E00E9457330E94632A16
:101F50008AE590E061E070E044EC59E023E000EDB8
:101F600017E00E94573365E070E080E090E00E9447
:101F7000AA3580E491E06FEF7FEF44EC59E020E078
:101F800000E010E00E9457338EE091E00E94A62A04
:101F900088EC90E06FEF7FEF44EC59E022E000E046
:101FA00010E00E9457330E94C1031B8E8A8D82303D
:101FB00031F08A8D882369F48E8D882351F48EE068
:101FC00091E00E94A62A0E94E10384E08C8F1F8E7C
:101FD000CDCD8A8D833041F08A8D813009F033C2B6
:101FE0008E8D882309F02FC28EE091E00E94A62AF0
:101FF00017C062E370E080E090E00E94AA3584E1BF
:1020000090E061E070E044EC59E023E000E010E093
:102010000E94573364EF71E080E090E00E94AA359F
:102020008CE89AE06DE57CE04FEF24EC39E005E0C8
:1020300010E0EE246894E1F80E94BD2C8823C9F6D4
:1020400087E08C8F1F8E82E08F8B90CD8D8D8330BB
:1020500009F071C00E94C1038A8D833009F18A8D15
:102060008230F1F00E94632A84E690E06FEF7FEF08
:1020700044EC59E020E000E010E00E94573365E0B6
:1020800070E080E090E00E94AA3584E690E061E094
:1020900070E044EC59E023E000E010E00E94573388
:1020A0008A8D833011F481E08A8F8A8D823009F421
:1020B0001A8E8CE091E00E94A62A83E466E90E94D1
:1020C000F83488EE93E06FEF7FEF48EE53E023E0C3
:1020D00000ED17E00E9457330E94010480E491E074
:1020E00061E070E044EC59E020E000E010E00E9484
:1020F000573383E466E90E94F83468E572E080E0D3
:1021000090E00E94AA3583E460E00E94F8348E8D4E
:10211000882329F481E08F8F83E08C8F27CD8A8DEF
:10212000882331F087E08C8F1F8E82E08F8B1ECD4D
:102130000E94E10388C18D8D843009F03FC087E2A1
:1021400091E00E94A62A8CE890E061E070E044EC07
:1021500059E023E000E010E00E94573382E463E29C
:102160000E9416040E94E1038FE590E061E070E0B8
:1021700044EC59E023E000ED17E00E94573389E575
:1021800091E00E94A62A86E990E061E070E044ECCC
:1021900059E023E000E010E00E9457338FE090E028
:1021A0000E94A62A8CE291E061E070E044EC59E0E4
:1021B00022E000E010E00E94573345C18D8D85304C
:1021C000D1F50E943037882321F40E9418378823E4
:1021D000B9F081E463E20E94F83482E467E80E9487
:1021E000F8346EE670E080E090E00E94AA3581E469
:1021F00060E00E94F83482E460E00E94F83423C179
:1022000081E467E80E94F83482E463E20E94F834D3
:102210006AEA70E080E090E00E94AA35E5E6F0E02E
:1022200081E0808381E460E00E94F83482E460E031
:102230000E94F83408C18D8D863081F582E462E316
:102240000E94F83481E466E90E94F83462E370E0A9
:1022500080E090E00E94AA3581E460E00E94F834BA
:1022600082E460E00E94F8348A8D823021F08A8D09
:10227000833009F0E8C08CED90E06FEF7FEF44EC25
:1022800059E022E000E010E00E9457330E94C103B1
:1022900081E08C8F81E08F8F1B8E68CC8D8D873095
:1022A00029F40E94C10382E08F8BCDC08D8D8830D0
:1022B00009F0C9C084EB90E00E94A62A0E94E103C5
:1022C00080EA90E061E070E044EC59E022E000E058
:1022D00010E00E94573382E466E90E94F83481E4FA
:1022E00062E30E94F83466E470E080E090E00E94CF
:1022F000AA350E94E10384E690E061E070E044ECDE
:1023000059E023E000ED17E00E94573382E466E9CC
:102310000E94F83481E462E30E94F83460E570E0E2
:1023200080E090E00E94AA350E94E1038AE590E0F7
:1023300061E070E044EC59E023E000ED17E00E941A
:10234000573382E466E90E94F83481E462E30E9434
:10235000F83466E470E080E090E00E94AA350E94C4
:10236000E10388E290E061E070E044EC59E023E0B2
:1023700000ED17E00E94573382E46CE80E94F834C5
:1023800081E468E20E94F8346EE571E080E090E05C
:102390000E94AA3581E460E00E94F83482E460E0A3
:1023A0000E94F8346AE070E080E090E00E94AA3574
:1023B00081E465E00E94F83482E469E60E94F83422
:1023C0008EE591E06FEF7FEF44EC59E020E000E014
:1023D00010E00E94573317C065E070E080E090E0A5
:1023E0000E94AA358AE090E06FEF7FEF44EC59E05D
:1023F00023E000E010E00E94573368EE73E080E0D5
:1024000090E00E94AA350E94AD279C012E5C3F4FB0
:102410008CE89AE0B90141E024EC39E005E010E0F5
:10242000EE246894E1F80E94BD2C8823A9F681E48B
:1024300060E00E94F83482E460E00E94F8341F8E6D
:1024400085E08C8F93CB8D8D8F5F8D8F8D8D8930B7
:1024500008F4A4CB8BCB8C8D8D8F5AC18D8D882F9A
:1024600090E0880F991F8B5B9E4F9B878A878A8598
:102470009B85FC018591949199878887FB87EA87E2
:1024800088859985BC018D8D882F90E0880F991FD4
:10249000835B9E4F9F838E838E819F81FC018591FC
:1024A00094919D838C83FF83EE838C819D81AC010D
:1024B0008D8D882F90E08B5A9E4F9B838A83EA8173
:1024C000FB81849189838981282FCB01BA01422F16
:1024D00024EC39E005E010E0EF880E94BD2C882351
:1024E00061F082E08F8F8D8D8C598C8F84EC99E018
:1024F000998F888F82E08F8B39CB82E08F8B84EC31
:1025000099E0998F888F8D8D882309F4FEC08D8D79
:10251000813009F062C084E690E06FEF7FEF44EC19
:1025200059E020E000E010E00E94573362E370E0E1
:1025300080E090E00E94AA3584E690E061E070E0DF
:1025400044EC59E023E000E010E00E9457338EE0B5
:1025500091E00E94A62A83E466E90E94F83488EE9E
:1025600093E06FEF7FEF48EE53E023E000ED17E0DC
:102570000E9457330E94010480E491E061E070E022
:1025800044EC59E020E000E010E00E94573383E47F
:1025900066E90E94F83468EE73E080E090E00E9403
:1025A000AA3583E460E00E94F8348E8D882339F4E4
:1025B00081E08F8F83E08C8F82E08F8BD7CA8A8DEA
:1025C000882339F01F8E87E08C8F82E08F8B1A8EE4
:1025D000CDCA1F8E84E08C8FC9CA8D8D823009F0E0
:1025E00082C08EE091E00E94A62A0E9471278C0191
:1025F000025A1E4F0E94AD279C01C801B9014FEF3E
:1026000024EC39E005E010E0EE240E94BD2C882384
:1026100019F162E370E080E090E00E94AA3586E460
:1026200090E061E070E044EC59E023E000E010E06D
:102630000E9457336CE271E080E090E00E94AA357E
:102640008E8D882349F481E08F8F83E08C8F82E028
:102650008F8B81E08E8F8ACA62E370E080E090E029
:102660000E94AA3583E466E90E94F83488EE93E07C
:102670006FEF7FEF48EE53E023E000ED17E00E949C
:1026800057330E94010480E491E061E070E044EC83
:1026900059E020E000E010E00E94573383E466E94F
:1026A0000E94F83468EE73E080E090E00E94AA3562
:1026B00083E460E00E94F8348E8D882339F481E051
:1026C0008F8F83E08C8F82E08F8B50CA8A8D882316
:1026D00031F01F8E87E08C8F82E08F8B47CA1F8E70
:1026E00084E08C8F43CA8D8D833079F48AE590E045
:1026F0000E94A62A1B8E1F8E81E08C8F84EC99E0AD
:10270000998F888F82E08F8B31CA8D8D8F5F8D8FEF
:102710008D8D843008F4A2CE29CA8C8D882399F53A
:102720000E9460378823F9F06AE070E080E090E072
:102730000E94AA3586E990E06FEF7FEF44EC59E004
:1027400023E000E010E00E94573364EF71E080E086
:1027500090E00E94AA3588EB9BE0998F888F83E0F8
:102760008F8B1F8E03CA0E94C1036CE271E080E070
:1027700090E00E94AA3588E29AE0998F888F1F8A9C
:102780001F8E1C8EF3C98C8D813009F081C08B8D1A
:102790008F5F8B8F8B8D833068F582E390E061E0F3
:1027A00070E044EC59E023E000E010E00E94573371
:1027B00064EF71E080E090E00E94AA351F8A1F8ECE
:1027C00081E08C8FD3C965E070E080E090E00E94EA
:1027D000AA358AE090E06FEF7FEF44EC59E023E008
:1027E00000E010E00E9457336CEB72E080E090E074
:1027F0000E94AA350E94AD279C0180E199E0B901B1
:1028000041E024EC39E005E010E0EE246894E1F8C2
:102810000E94BD2C8823B9F68E8D882341F506C011
:1028200064EF71E080E090E00E94AA350E94AD273D
:102830009C0187E39AE0B90141E024EC39E005E02E
:1028400010E0EE246894E1F80E94BD2C882341F743
:102850008A8D882331F41F8E84E08C8F0E94E103DF
:1028600085C91F8E87E08C8F82E08F8B7FC982E0C5
:102870008F8B1E8E1F8E83E08C8F8A8D833011F498
:1028800081E08A8F8A8D823009F070C91A8E6EC9F4
:102890008C8D823009F0C3C08B8D882391F464E85D
:1028A00073E080E090E00E94AA351F8E82E08C8F5A
:1028B00088EE93E0998F888F1F8A8B8D8F5F8B8F27
:1028C00055C98B8D8F5F8B8F8B8D833008F487C0BC
:1028D00064EF71E080E090E00E94AA3584E596E024
:1028E00068EF7CE041E024EC39E005E010E00F2ED9
:1028F000F3E0EF2EF02D0E94BD2C82E08F8B1B8E1B
:102900006CE271E080E090E00E94AA3528C08B8DD7
:102910008F5F8B8F8B8D853058F01F8E84EC99E004
:10292000998F888F82E08F8B1B8E81E08C8F27C0E0
:102930006AE070E080E090E00E94AA3584E190E0D7
:1029400061E070E044EC59E023E000E010E00E9418
:10295000573364EF71E080E090E00E94AA3580E197
:1029600099E068EF7CE04FEF24EC39E005E010E0FF
:10297000EE246894E1F80E94BD2C882341F61B8E5A
:102980008E8D813079F41E8E1F8E83E08C8F8A8D20
:10299000833011F481E08A8F8A8D823009F0E6C895
:1029A0001A8EE4C88A8D882331F40E94E1031F8EB9
:1029B00084E08C8FDBC88CE89AE06DE57CE04FEF1B
:1029C00024EC39E005E010E0EE246894E1F80E9480
:1029D000BD2C1F8E87E08C8F82E08F8BC7C86AE08A
:1029E00070E080E090E00E94AA358EE190E061E026
:1029F00070E044EC59E023E000E010E00E9457331F
:102A000064EF71E080E090E00E94AA3582E08C8F54
:102A10001F8E84EC99E0998F888F1F8AA7C88C8DB0
:102A2000833091F468E572E080E090E00E94AA357E
:102A30000E94C1031B8E1F8A84EC99E0998F888FB6
:102A400081E08F8F1C8E92C88C8D843051F58A8DD9
:102A50008230E9F40E94AD2729E0863A9207BCF45F
:102A600082E390E061E070E044EC59E023E000E0B4
:102A700010E00E9457331F8E83E08C8F82E08F8B93
:102A800064EF71E080E090E00E94AA356FC864EFC7
:102A900071E080E090E00E94AA3582E08F8B1F8E6B
:102AA00065C88C8D873051F58A8D8330E9F40E949A
:102AB000AD2739E0863A9307BCF482E390E061E009
:102AC00070E044EC59E023E000E010E00E9457334E
:102AD0001F8E83E08C8F82E08F8B64EF71E080E04B
:102AE00090E00E94AA3542C864EF71E080E090E077
:102AF0000E94AA3582E08F8B1F8E38C88C8D88305B
:102B000009F564EF71E080E090E00E94AA358A8DBB
:102B10008330C1F40E94AD279C018CE89AE0B90192
:102B200041E024EC39E005E010E00F2EF3E0EF2E59
:102B3000F02D0E94BD2C1F8E83E08C8F82E08F8B46
:102B40000C94B60D8C8D853699F564EF71E080E0BC
:102B500090E00E94AA358B8D8F5F8B8F8B8D843098
:102B600058F08E8D882341F481E08F8F83E08C8F25
:102B700081E08E8F0C94B60D64EF71E080E090E000
:102B80000E94AA3584EB9AE068EA7CE041E024ECFC
:102B900039E005E010E00F2EF3E0EF2EF02D0E945B
:102BA000BD2C81E08F8F82E08C8F1F8A0C94B60D34
:102BB0008C8D8636E9F464EF71E080E090E00E944D
:102BC000AA358B8D8F5F8B8F8B8D843060F08E8DCF
:102BD000882349F41B8E81E08E8F81E08F8F83E004
:102BE0008C8F0C94B60D81E08F8F1C8E0C94B60DDB
:102BF0008C8D843678F082E08F8B68E572E080E01F
:102C000090E00E94AA358C8D84568C8F81E08F8F46
:102C10000C94B60D68E572E080E090E00E94AA3561
:102C200082E08F8B1F8E0C94B60D0F931F93DF9352
:102C3000CF93CDB7DEB7CD57D0400FB6F894DEBFF7
:102C40000FBECDBFFE01E458FF4F8083FE01E35865
:102C5000FF4F6083DE01A558BF4FFE01E458FF4FD0
:102C6000808182958F708C93DE01A658BF4FFE0144
:102C7000E458FF4F80818F708C93FE01E358FF4F23
:102C80008081882341F4A5E3B0E0E5E3F0E08081B2
:102C90008F7B8C9307C0A5E3B0E0E5E3F0E0808193
:102CA00080648C93FE01EB58FF4F80E090E0A0E041
:102CB000BFE380839183A283B3838E010F581F4F9C
:102CC000FE01EB58FF4F60817181828193812AEF71
:102CD0003DEE4BE650E40E94583DDC01CB01F8018B
:102CE00080839183A283B383FE01EF58FF4F6081FD
:102CF00071818281938120E030E040E85FE30E94AF
:102D00009D3B882334F4FE01E059FF4F81E080832E
:102D1000E0C0FE01EF58FF4F608171818281938195
:102D200020E030E04FE753E40E944D3D18160CF0D0
:102D3000C0C0FE01EB58FF4F608171818281938199
:102D400020E030E04AE754E40E94A43BDC01CB01E0
:102D5000FE01E459FF4F80839183A283B3838E01E8
:102D600008591F4FFE01E459FF4F60817181828134
:102D700093812DEC3CEC4CE255E40E94583DDC0183
:102D8000CB01F80180839183A283B383FE01E859CC
:102D9000FF4F608171818281938120E030E040E8C3
:102DA0005FE30E949D3B882344F4FE01EA59FF4FF4
:102DB00081E090E09183808364C0FE01E859FF4F79
:102DC000608171818281938120E03FEF4FE757E47A
:102DD0000E944D3D18160CF043C0FE01E459FF4F10
:102DE000608171818281938120E030E040E251E492
:102DF0000E94583DDC01CB018E010A591F4FBC01D6
:102E0000CD010E94113CDC01CB01F801918380834C
:102E10001FC0FE01EC59FF4F84E191E09183808354
:102E2000FE01EC59FF4F808191810197F1F7FE017E
:102E3000EC59FF4F91838083DE01AA59BF4FFE01F9
:102E4000EA59FF4F80819181019711969C938E934F
:102E5000FE01EA59FF4F808191810097D1F64BC066
:102E60008E010A591F4FFE01E859FF4F60817181A1
:102E7000828193810E94113CDC01CB01F801918396
:102E80008083DE01AE59BF4FFE01EA59FF4F8081BA
:102E9000918111969C938E93FE01EE59FF4F808194
:102EA00091810197F1F7FE01EE59FF4F91838083E5
:102EB00022C08E0100591F4FFE01EF58FF4F608165
:102EC0007181828193810E94113CDC01CB01F80168
:102ED0008083DE01AF59BF4FFE01E059FF4F808173
:102EE0008C93FE01EF59FF4F80818A95F1F7FE0127
:102EF000EF59FF4F8083A5E3B0E0E5E3F0E0808188
:102F000080688C93E5E3F0E08081982F907FFE014C
:102F1000E558FF4F8081892BFE01E758FF4F8083E2
:102F2000A5E3B0E0FE01E758FF4F80818C93FE01DE
:102F3000E35AFF4F80E090E0A0E8BFE380839183F5
:102F4000A283B3838E01075A1F4FFE01E35AFF4F3E
:102F500060817181828193812AEF3DEE4BE650E4DE
:102F60000E94583DDC01CB01F80180839183A2834C
:102F7000B383FE01E75AFF4F6081718182819381A3
:102F800020E030E040E85FE30E949D3B882334F47A
:102F9000FE01E85AFF4F81E08083E0C0FE01E75A5E
:102FA000FF4F608171818281938120E030E04FE7A3
:102FB00053E40E944D3D18160CF0C0C0FE01E35AC8
:102FC000FF4F608171818281938120E030E04AE788
:102FD00054E40E94A43BDC01CB01FE01EC5AFF4FFC
:102FE00080839183A283B3838E01005B1F4FFE0118
:102FF000EC5AFF4F60817181828193812DEC3CEC12
:103000004CE255E40E94583DDC01CB01F80180837D
:103010009183A283B383FE01E05BFF4F60817181E6
:103020008281938120E030E040E85FE30E949D3B95
:10303000882344F4FE01E25BFF4F81E090E091833E
:10304000808364C0FE01E05BFF4F608171818281FB
:10305000938120E03FEF4FE757E40E944D3D181663
:103060000CF043C0FE01EC5AFF4F608171818281F8
:10307000938120E030E040E251E40E94583DDC01C1
:10308000CB018E01025B1F4FBC01CD010E94113CA0
:10309000DC01CB01F801918380831FC0FE01E45B5A
:1030A000FF4F84E191E091838083FE01E45BFF4F59
:1030B000808191810197F1F7FE01E45BFF4F9183DD
:1030C0008083DE01A25BBF4FFE01E25BFF4F808188
:1030D0009181019711969C938E93FE01E25BFF4FC5
:1030E000808191810097D1F64BC08E01025B1F4F0A
:1030F000FE01E05BFF4F60817181828193810E94BC
:10310000113CDC01CB01F80191838083DE01A65BD9
:10311000BF4FFE01E25BFF4F8081918111969C932E
:103120008E93FE01E65BFF4F808191810197F1F75D
:10313000FE01E65BFF4F9183808322C08E01085A17
:103140001F4FFE01E75AFF4F608171818281938199
:103150000E94113CDC01CB01F8018083DE01A75BFA
:10316000BF4FFE01E85AFF4F80818C93FE01E75B61
:10317000FF4F80818A95F1F7FE01E75BFF4F808367
:10318000A5E3B0E0E5E3F0E080818F778C93FE016A
:10319000EB5BFF4F80E090E0A0E8BFE3808391838A
:1031A000A283B3838E010F5B1F4FFE01EB5BFF4FCA
:1031B00060817181828193812AEF3DEE4BE650E47C
:1031C0000E94583DDC01CB01F80180839183A283EA
:1031D000B383FE01EF5BFF4F608171818281938138
:1031E00020E030E040E85FE30E949D3B882334F418
:1031F00081E0FE01E05CFF4F80839DC0FE01EF5B3C
:10320000FF4F608171818281938120E030E04FE740
:1032100053E40E944D3D18160CF07EC0FE01EB5B9E
:10322000FF4F608171818281938120E030E04AE725
:1032300054E40E94A43BDC01CB018CAF9DAFAEAF48
:10324000BFAF6CAD7DAD8EAD9FAD2DEC3CEC4CE2D7
:1032500055E40E94583DDC01CB0188AF99AFAAAF7D
:10326000BBAF68AD79AD8AAD9BAD20E030E040E802
:103270005FE30E949D3B88232CF481E090E09FABAC
:103280008EAB3FC068AD79AD8AAD9BAD20E03FEF1E
:103290004FE757E40E944D3D18164CF56CAD7DADDF
:1032A0008EAD9FAD20E030E040E251E40E94583DF9
:1032B000DC01CB01BC01CD010E94113CDC01CB0142
:1032C0009FAB8EAB0FC084E191E09DAB8CAB8CA922
:1032D0009DA90197F1F79DAB8CAB8EA99FA9019792
:1032E0009FAB8EAB8EA99FA9009769F72DC068ADE3
:1032F00079AD8AAD9BAD0E94113CDC01CB019FAB47
:103300008EAB8EA99FA99BAB8AAB8AA99BA901977B
:10331000F1F79BAB8AAB18C0FE01EF5BFF4F6081FA
:103320007181828193810E94113CDC01CB01FE01FD
:10333000E05CFF4F8083FE01E05CFF4F808189AB42
:1033400089A98A95F1F789ABA5E3B0E0E5E3F0E060
:10335000808180688C93E5E3F0E08081982F907FF6
:10336000FE01E658FF4F8081892BFE01E758FF4F91
:103370008083A5E3B0E0FE01E758FF4F80818C9386
:1033800080E090E0A0E8BFE38DA79EA7AFA7B8AB11
:103390006DA57EA58FA598A92AEF3DEE4BE650E4DA
:1033A0000E94583DDC01CB0189A79AA7ABA7BCA717
:1033B00069A57AA58BA59CA520E030E040E85FE3F5
:1033C0000E949D3B88231CF481E088A791C069A5D9
:1033D0007AA58BA59CA520E030E04FE753E40E943E
:1033E0004D3D18160CF07BC06DA57EA58FA598A944
:1033F00020E030E04AE754E40E94A43BDC01CB012A
:103400008CA39DA3AEA3BFA36CA17DA18EA19FA100
:103410002DEC3CEC4CE255E40E94583DDC01CB0124
:1034200088A399A3AAA3BBA368A179A18AA19BA100
:1034300020E030E040E85FE30E949D3B88232CF4CD
:1034400081E090E09F8F8E8F3FC068A179A18AA113
:103450009BA120E03FEF4FE757E40E944D3D181637
:103460004CF56CA17DA18EA19FA120E030E040E24F
:1034700051E40E94583DDC01CB01BC01CD010E940A
:10348000113CDC01CB019F8F8E8F0FC084E191E056
:103490009D8F8C8F8C8D9D8D0197F1F79D8F8C8FDB
:1034A0008E8D9F8D01979F8F8E8F8E8D9F8D009714
:1034B00069F724C068A179A18AA19BA10E94113C4F
:1034C000DC01CB019F8F8E8F8E8D9F8D9B8F8A8F7E
:1034D0008A8D9B8D0197F1F79B8F8A8F0FC069A50D
:1034E0007AA58BA59CA50E94113CDC01CB0188A785
:1034F00088A5898F898D8A95F1F7898FA5E3B0E03A
:10350000E5E3F0E080818F778C9380E090E0A0E8A5
:10351000BFE38D8B9E8BAF8BB88F6D897E898F8932
:10352000988D2AEF3DEE4BE650E40E94583DDC01B9
:10353000CB01898B9A8BAB8BBC8B69897A898B8900
:103540009C8920E030E040E85FE30E949D3B8823B7
:103550001CF481E0888B91C069897A898B899C8968
:1035600020E030E04FE753E40E944D3D18160CF088
:103570007BC06D897E898F89988D20E030E04AE795
:1035800054E40E94A43BDC01CB018C879D87AE876D
:10359000BF876C857D858E859F852DEC3CEC4CE24C
:1035A00055E40E94583DDC01CB0188879987AA87A2
:1035B000BB87688579858A859B8520E030E040E877
:1035C0005FE30E949D3B88232CF481E090E09F8381
:1035D0008E833FC0688579858A859B8520E03FEF93
:1035E0004FE757E40E944D3D18164CF56C857D85DC
:1035F0008E859F8520E030E040E251E40E94583DF6
:10360000DC01CB01BC01CD010E94113CDC01CB01EE
:103610009F838E830FC084E191E09D838C838C8196
:103620009D810197F1F79D838C838E819F81019706
:103630009F838E838E819F81009769F724C0688560
:1036400079858A859B850E94113CDC01CB019F8393
:103650008E838E819F819B838A838A819B81019740
:10366000F1F79B838A830FC069897A898B899C894A
:103670000E94113CDC01CB01888B88898983898178
:103680008A95F1F789830E94511BC358DF4F0FB60B
:10369000F894DEBF0FBECDBFCF91DF911F910F9188
:1036A00008950F931F93DF93CF93CDB7DEB7CB5A17
:1036B000D0400FB6F894DEBF0FBECDBFFE01E65579
:1036C000FF4F1082A4E3B0E0E4E3F0E08081807F6C
:1036D0008C93A5E3B0E0E5E3F0E0808180628C9319
:1036E000A5E3B0E0E5E3F0E080818F7B8C93FE0101
:1036F000EB55FF4F80E090E0A0E0BFE38083918333
:10370000A283B3838E010F551F4FFE01EB55FF4F70
:1037100060817181828193812AEF3DEE4BE650E416
:103720000E94583DDC01CB01F80180839183A28384
:10373000B383FE01EF55FF4F6081718182819381D8
:1037400020E030E040E85FE30E949D3B882334F4B2
:10375000FE01E056FF4F81E08083E0C0FE01EF559F
:10376000FF4F608171818281938120E030E04FE7DB
:1037700053E40E944D3D18160CF0C0C0FE01EB55FD
:10378000FF4F608171818281938120E030E04AE7C0
:1037900054E40E94A43BDC01CB01FE01E456FF4F40
:1037A00080839183A283B3838E0108561F4FFE014D
:1037B000E456FF4F60817181828193812DEC3CEC56
:1037C0004CE255E40E94583DDC01CB01F8018083B6
:1037D0009183A283B383FE01E856FF4F608171811C
:1037E0008281938120E030E040E85FE30E949D3BCE
:1037F000882344F4FE01EA56FF4F81E090E0918374
:10380000808364C0FE01E856FF4F60817181828130
:10381000938120E03FEF4FE757E40E944D3D18169B
:103820000CF043C0FE01E456FF4F6081718182813C
:10383000938120E030E040E251E40E94583DDC01F9
:10384000CB018E010A561F4FBC01CD010E94113CD5
:10385000DC01CB01F801918380831FC0FE01EC568F
:10386000FF4F84E191E091838083FE01EC56FF4F8E
:10387000808191810197F1F7FE01EC56FF4F918312
:103880008083DE01AA56BF4FFE01EA56FF4F8081BA
:103890009181019711969C938E93FE01EA56FF4FFA
:1038A000808191810097D1F64BC08E010A561F4F3F
:1038B000FE01E856FF4F60817181828193810E94F1
:1038C000113CDC01CB01F80191838083DE01AE560F
:1038D000BF4FFE01EA56FF4F8081918111969C9364
:1038E0008E93FE01EE56FF4F808191810197F1F793
:1038F000FE01EE56FF4F9183808322C08E01005659
:103900001F4FFE01EF55FF4F6081718182819381CE
:103910000E94113CDC01CB01F8018083DE01AF562F
:10392000BF4FFE01E056FF4F80818C93FE01EF56A2
:10393000FF4F80818A95F1F7FE01EF56FF4F80839C
:10394000A5E3B0E0E5E3F0E0808180688C93FE01C0
:10395000E357FF4F80E090E0A0E0BFE380839183D6
:10396000A283B3838E0107571F4FFE01E357FF4F1A
:1039700060817181828193812AEF3DEE4BE650E4B4
:103980000E94583DDC01CB01F80180839183A28322
:10399000B383FE01E757FF4F60817181828193817C
:1039A00020E030E040E85FE30E949D3B882334F450
:1039B000FE01E857FF4F81E08083E0C0FE01E7573A
:1039C000FF4F608171818281938120E030E04FE779
:1039D00053E40E944D3D18160CF0C0C0FE01E357A1
:1039E000FF4F608171818281938120E030E04AE75E
:1039F00054E40E94A43BDC01CB01FE01EC57FF4FD5
:103A000080839183A283B3838E0100581F4FFE01F0
:103A1000EC57FF4F60817181828193812DEC3CECEA
:103A20004CE255E40E94583DDC01CB01F801808353
:103A30009183A283B383FE01E058FF4F60817181BF
:103A40008281938120E030E040E85FE30E949D3B6B
:103A5000882344F4FE01E258FF4F81E090E0918317
:103A6000808364C0FE01E058FF4F608171818281D4
:103A7000938120E03FEF4FE757E40E944D3D181639
:103A80000CF043C0FE01EC57FF4F608171818281D1
:103A9000938120E030E040E251E40E94583DDC0197
:103AA000CB018E0102581F4FBC01CD010E94113C79
:103AB000DC01CB01F801918380831FC0FE01E45833
:103AC000FF4F84E191E091838083FE01E458FF4F32
:103AD000808191810197F1F7FE01E458FF4F9183B6
:103AE0008083DE01A258BF4FFE01E258FF4F808164
:103AF0009181019711969C938E93FE01E258FF4F9E
:103B0000808191810097D1F64BC08E0102581F4FE2
:103B1000FE01E058FF4F60817181828193810E9494
:103B2000113CDC01CB01F80191838083DE01A658B2
:103B3000BF4FFE01E258FF4F8081918111969C9307
:103B40008E93FE01E658FF4F808191810197F1F736
:103B5000FE01E658FF4F9183808322C08E010857F3
:103B60001F4FFE01E757FF4F608171818281938172
:103B70000E94113CDC01CB01F8018083DE01A758D3
:103B8000BF4FFE01E857FF4F80818C93FE01E7583D
:103B9000FF4F80818A95F1F7FE01E758FF4F808340
:103BA000E3E3F0E0DE01A655BF4F80818C93DE0198
:103BB000A655BF4FFE01E655FF4F80818295807F5D
:103BC0008C93FE01EB58FF4F80E090E0A0E0BFE354
:103BD00080839183A283B3838E010F581F4FFE0110
:103BE000EB58FF4F60817181828193812AEF3DEE16
:103BF0004BE650E40E94583DDC01CB01F801808384
:103C00009183A283B383FE01EF58FF4F60817181DE
:103C10008281938120E030E040E85FE30E949D3B99
:103C2000882334F4FE01E059FF4F81E08083E0C037
:103C3000FE01EF58FF4F608171818281938120E006
:103C400030E04FE753E40E944D3D18160CF0C0C021
:103C5000FE01EB58FF4F608171818281938120E0EA
:103C600030E04AE754E40E94A43BDC01CB01FE01B2
:103C7000E459FF4F80839183A283B3838E01085957
:103C80001F4FFE01E459FF4F608171818281938152
:103C90002DEC3CEC4CE255E40E94583DDC01CB019C
:103CA000F80180839183A283B383FE01E859FF4F1B
:103CB000608171818281938120E030E040E85FE3A0
:103CC0000E949D3B882344F4FE01EA59FF4F81E0A6
:103CD00090E09183808364C0FE01E859FF4F6081CA
:103CE00071818281938120E03FEF4FE757E40E948A
:103CF0004D3D18160CF043C0FE01E459FF4F6081A2
:103D000071818281938120E030E040E251E40E94A1
:103D1000583DDC01CB018E010A591F4FBC01CD017A
:103D20000E94113CDC01CB01F801918380831FC00C
:103D3000FE01EC59FF4F84E191E091838083FE0105
:103D4000EC59FF4F808191810197F1F7FE01EC5909
:103D5000FF4F91838083DE01AA59BF4FFE01EA59CC
:103D6000FF4F80819181019711969C938E93FE0164
:103D7000EA59FF4F808191810097D1F64BC08E01A7
:103D80000A591F4FFE01E859FF4F608171818281FE
:103D900093810E94113CDC01CB01F8019183808367
:103DA000DE01AE59BF4FFE01EA59FF4F808191817C
:103DB00011969C938E93FE01EE59FF4F8081918165
:103DC0000197F1F7FE01EE59FF4F9183808322C0E6
:103DD0008E0100591F4FFE01EF58FF4F6081718126
:103DE000828193810E94113CDC01CB01F801808328
:103DF000DE01AF59BF4FFE01E059FF4F80818C9328
:103E0000FE01EF59FF4F80818A95F1F7FE01EF59CE
:103E1000FF4F8083A5E3B0E0E5E3F0E080818F779A
:103E20008C93FE01E35AFF4F80E090E0A0E8BFE3EF
:103E300080839183A283B3838E01075A1F4FFE01B3
:103E4000E35AFF4F60817181828193812AEF3DEEB9
:103E50004BE650E40E94583DDC01CB01F801808321
:103E60009183A283B383FE01E75AFF4F6081718182
:103E70008281938120E030E040E85FE30E949D3B37
:103E8000882334F4FE01E85AFF4F81E08083E0C0CC
:103E9000FE01E75AFF4F608171818281938120E0AA
:103EA00030E04FE753E40E944D3D18160CF0C0C0BF
:103EB000FE01E35AFF4F608171818281938120E08E
:103EC00030E04AE754E40E94A43BDC01CB01FE0150
:103ED000EC5AFF4F80839183A283B3838E01005BF2
:103EE0001F4FFE01EC5AFF4F6081718182819381E7
:103EF0002DEC3CEC4CE255E40E94583DDC01CB013A
:103F0000F80180839183A283B383FE01E05BFF4FBE
:103F1000608171818281938120E030E040E85FE33D
:103F20000E949D3B882344F4FE01E25BFF4F81E049
:103F300090E09183808364C0FE01E05BFF4F60816D
:103F400071818281938120E03FEF4FE757E40E9427
:103F50004D3D18160CF043C0FE01EC5AFF4F608136
:103F600071818281938120E030E040E251E40E943F
:103F7000583DDC01CB018E01025B1F4FBC01CD011E
:103F80000E94113CDC01CB01F801918380831FC0AA
:103F9000FE01E45BFF4F84E191E091838083FE01A9
:103FA000E45BFF4F808191810197F1F7FE01E45BB3
:103FB000FF4F91838083DE01A25BBF4FFE01E25B76
:103FC000FF4F80819181019711969C938E93FE0102
:103FD000E25BFF4F808191810097D1F64BC08E014B
:103FE000025B1F4FFE01E05BFF4F608171818281A8
:103FF00093810E94113CDC01CB01F8019183808305
:10400000DE01A65BBF4FFE01E25BFF4F8081918125
:1040100011969C938E93FE01E65BFF4F8081918108
:104020000197F1F7FE01E65BFF4F9183808322C089
:104030008E01085A1F4FFE01E75AFF4F60817181C0
:10404000828193810E94113CDC01CB01F8018083C5
:10405000DE01A75BBF4FFE01E85AFF4F80818C93C2
:10406000FE01E75BFF4F80818A95F1F7FE01E75B78
:10407000FF4F8083A5E3B0E0E5E3F0E08081806856
:104080008C93FE01EB5BFF4F80E090E0A0E0BFE38C
:1040900080839183A283B3838E010F5B1F4FFE0148
:1040A000EB5BFF4F60817181828193812AEF3DEE4E
:1040B0004BE650E40E94583DDC01CB01F8018083BF
:1040C0009183A283B383FE01EF5BFF4F6081718117
:1040D0008281938120E030E040E85FE30E949D3BD5
:1040E000882334F481E0FE01E05CFF4F80839DC0B3
:1040F000FE01EF5BFF4F608171818281938120E03F
:1041000030E04FE753E40E944D3D18160CF07EC09E
:10411000FE01EB5BFF4F608171818281938120E022
:1041200030E04AE754E40E94A43BDC01CB018CAFB1
:104130009DAFAEAFBFAF6CAD7DAD8EAD9FAD2DEC85
:104140003CEC4CE255E40E94583DDC01CB0188AFC9
:1041500099AFAAAFBBAF68AD79AD8AAD9BAD20E09A
:1041600030E040E85FE30E949D3B88232CF481E02F
:1041700090E09FAB8EAB3FC068AD79AD8AAD9BAD93
:1041800020E03FEF4FE757E40E944D3D18164CF5F5
:104190006CAD7DAD8EAD9FAD20E030E040E251E4EE
:1041A0000E94583DDC01CB01BC01CD010E94113CB5
:1041B000DC01CB019FAB8EAB0FC084E191E09DABE6
:1041C0008CAB8CA99DA90197F1F79DAB8CAB8EA907
:1041D0009FA901979FAB8EAB8EA99FA9009769F706
:1041E0002DC068AD79AD8AAD9BAD0E94113CDC015C
:1041F000CB019FAB8EAB8EA99FA99BAB8AAB8AA943
:104200009BA90197F1F79BAB8AAB18C0FE01EF5B4E
:10421000FF4F60817181828193810E94113CDC019A
:10422000CB01FE01E05CFF4F8083FE01E05CFF4FAD
:10423000808189AB89A98A95F1F789ABE3E3F0E046
:10424000DE01A755BF4F80818C93DE01A755BF4F7C
:10425000FE01E755FF4F80818F708C939E0126559C
:104260003F4FFE01E655FF4FDE01A755BF4F90813E
:104270008C91892BF9018083DE01A555BF4FFE018A
:10428000E655FF4F808180788C9380E090E0A0E03D
:10429000BFE38DA79EA7AFA7B8AB6DA57EA58FA5E1
:1042A00098A92AEF3DEE4BE650E40E94583DDC0110
:1042B000CB0189A79AA7ABA7BCA769A57AA58BA5AF
:1042C0009CA520E030E040E85FE30E949D3B88230E
:1042D0001CF481E088A791C069A57AA58BA59CA54F
:1042E00020E030E04FE753E40E944D3D18160CF0FB
:1042F0007BC06DA57EA58FA598A920E030E04AE798
:1043000054E40E94A43BDC01CB018CA39DA3AEA38B
:10431000BFA36CA17DA18EA19FA12DEC3CEC4CE232
:1043200055E40E94583DDC01CB0188A399A3AAA3C0
:10433000BBA368A179A18AA19BA120E030E040E85D
:104340005FE30E949D3B88232CF481E090E09F8FE7
:104350008E8F3FC068A179A18AA19BA120E03FEF89
:104360004FE757E40E944D3D18164CF56CA17DA116
:104370008EA19FA120E030E040E251E40E94583D30
:10438000DC01CB01BC01CD010E94113CDC01CB0161
:104390009F8F8E8F0FC084E191E09D8F8C8F8C8DCD
:1043A0009D8D0197F1F79D8F8C8F8E8D9F8D01973D
:1043B0009F8F8E8F8E8D9F8D009769F724C068A187
:1043C00079A18AA19BA10E94113CDC01CB019F8FA6
:1043D0008E8F8E8D9F8D9B8F8A8F8A8D9B8D01975F
:1043E000F1F79B8F8A8F0FC069A57AA58BA59CA535
:1043F0000E94113CDC01CB0188A788A5898F898D9B
:104400008A95F1F7898FA5E3B0E0E5E3F0E08081DC
:104410008F778C9380E090E0A0E8BFE38D8B9E8B3C
:10442000AF8BB88F6D897E898F89988D2AEF3DEE8D
:104430004BE650E40E94583DDC01CB01898B9A8BFE
:10444000AB8BBC8B69897A898B899C8920E030E0B1
:1044500040E85FE30E949D3B88231CF481E0888B49
:1044600091C069897A898B899C8920E030E04FE787
:1044700053E40E944D3D18160CF07BC06D897E8977
:104480008F89988D20E030E04AE754E40E94A43BF5
:10449000DC01CB018C879D87AE87BF876C857D85CE
:1044A0008E859F852DEC3CEC4CE255E40E94583DF6
:1044B000DC01CB0188879987AA87BB8768857985C6
:1044C0008A859B8520E030E040E85FE30E949D3BC9
:1044D00088232CF481E090E09F838E833FC0688521
:1044E00079858A859B8520E03FEF4FE757E40E945E
:1044F0004D3D18164CF56C857D858E859F8520E099
:1045000030E040E251E40E94583DDC01CB01BC01A7
:10451000CD010E94113CDC01CB019F838E830FC033
:1045200084E191E09D838C838C819D810197F1F7DB
:104530009D838C838E819F8101979F838E838E8143
:104540009F81009769F724C0688579858A859B8556
:104550000E94113CDC01CB019F838E838E819F8161
:104560009B838A838A819B810197F1F79B838A834E
:104570000FC069897A898B899C890E94113CDC0172
:10458000CB01888B8889898389818A95F1F7898312
:10459000FE01E555FF4F8081882309F0D1C9A5E3CD
:1045A000B0E0E5E3F0E080818F7D8C93A4E3B0E0A0
:1045B000E4E3F0E080818F608C93C555DF4F0FB648
:1045C000F894DEBF0FBECDBFCF91DF911F910F9149
:1045D00008950F931F93DF93CF93CDB7DEB7C755E1
:1045E000D0400FB6F894DEBF0FBECDBFFE01E95A32
:1045F000FF4F8083FE01ED5AFF4F80E090E0A0EF77
:10460000B1E480839183A283B3838E01015B1F4F4A
:10461000FE01ED5AFF4F60817181828193812DEC03
:104620003CEC4CE255E40E94583DDC01CB01F80122
:1046300080839183A283B383FE01E15BFF4F60819E
:1046400071818281938120E030E040E85FE30E9445
:104650009D3B882344F4FE01E35BFF4F81E090E043
:104660009183808364C0FE01E15BFF4F60817181B3
:104670008281938120E03FEF4FE757E40E944D3D58
:1046800018160CF043C0FE01ED5AFF4F6081718196
:104690008281938120E030E040E251E40E94583D65
:1046A000DC01CB018E01035B1F4FBC01CD010E94D9
:1046B000113CDC01CB01F801918380831FC0FE0116
:1046C000E55BFF4F84E191E091838083FE01E55B30
:1046D000FF4F808191810197F1F7FE01E55BFF4F6C
:1046E00091838083DE01A35BBF4FFE01E35BFF4F3D
:1046F00080819181019711969C938E93FE01E35BDB
:10470000FF4F808191810097D1F627C08E01035B16
:104710001F4FFE01E15BFF4F6081718182819381B8
:104720000E94113CDC01CB01F80191838083DE0102
:10473000A75BBF4FFE01E35BFF4F808191818D93AB
:104740009C93FE01E75BFF4F808191810197F1F718
:10475000FE01E75BFF4F91838083A4E3B0E0E4E3D5
:10476000F0E080818F608C93A4E3B0E0E4E3F0E0BC
:10477000808180688C93A4E3B0E0E4E3F0E0808182
:1047800080648C93A4E3B0E0E4E3F0E08081806295
:104790008C93A5E3B0E0E5E3F0E08081807F8C932B
:1047A000A5E3B0E0E5E3F0E080818F778C93A5E3AB
:1047B000B0E0E5E3F0E080818F7D8C93A5E3B0E08D
:1047C000E5E3F0E080818F7B8C93FE01EB5BFF4F94
:1047D0008AE999E9A9E9BEE380839183A283B3833F
:1047E0008E010F5B1F4FFE01EB5BFF4F60817181FC
:1047F000828193812AEF3DEE4BE650E40E94583DC2
:10480000DC01CB01F80180839183A283B383FE0195
:10481000EF5BFF4F608171818281938120E030E006
:1048200040E85FE30E949D3B882334F481E0FE0171
:10483000E05CFF4F80839DC0FE01EF5BFF4F608116
:1048400071818281938120E030E04FE753E40E9440
:104850004D3D18160CF07EC0FE01EB5BFF4F6081F2
:1048600071818281938120E030E04AE754E40E9424
:10487000A43BDC01CB018CAF9DAFAEAFBFAF6CAD45
:104880007DAD8EAD9FAD2DEC3CEC4CE255E40E942D
:10489000583DDC01CB0188AF99AFAAAFBBAF68AD83
:1048A00079AD8AAD9BAD20E030E040E85FE30E9447
:1048B0009D3B88232CF481E090E09FAB8EAB3FC002
:1048C00068AD79AD8AAD9BAD20E03FEF4FE757E48F
:1048D0000E944D3D18164CF56CAD7DAD8EAD9FAD73
:1048E00020E030E040E251E40E94583DDC01CB0181
:1048F000BC01CD010E94113CDC01CB019FAB8EAB12
:104900000FC084E191E09DAB8CAB8CA99DA9019770
:10491000F1F79DAB8CAB8EA99FA901979FAB8EAB96
:104920008EA99FA9009769F72DC068AD79AD8AADB2
:104930009BAD0E94113CDC01CB019FAB8EAB8EA9DD
:104940009FA99BAB8AAB8AA99BA90197F1F79BAB67
:104950008AAB18C0FE01EF5BFF4F608171818281DD
:1049600093810E94113CDC01CB01FE01E05CFF4F12
:104970008083FE01E05CFF4F808189AB89A98A9525
:10498000F1F789ABA5E3B0E0E5E3F0E08081806872
:104990008C93A5E3B0E0E5E3F0E0808182608C9346
:1049A00080E090E0A0E8BFE38DA79EA7AFA7B8ABDB
:1049B0006DA57EA58FA598A92AEF3DEE4BE650E4A4
:1049C0000E94583DDC01CB0189A79AA7ABA7BCA7E1
:1049D00069A57AA58BA59CA520E030E040E85FE3BF
:1049E0000E949D3B88231CF481E088A791C069A5A3
:1049F0007AA58BA59CA520E030E04FE753E40E9408
:104A00004D3D18160CF07BC06DA57EA58FA598A90D
:104A100020E030E04AE754E40E94A43BDC01CB01F3
:104A20008CA39DA3AEA3BFA36CA17DA18EA19FA1CA
:104A30002DEC3CEC4CE255E40E94583DDC01CB01EE
:104A400088A399A3AAA3BBA368A179A18AA19BA1CA
:104A500020E030E040E85FE30E949D3B88232CF497
:104A600081E090E09F8F8E8F3FC068A179A18AA1DD
:104A70009BA120E03FEF4FE757E40E944D3D181601
:104A80004CF56CA17DA18EA19FA120E030E040E219
:104A900051E40E94583DDC01CB01BC01CD010E94D4
:104AA000113CDC01CB019F8F8E8F0FC084E191E020
:104AB0009D8F8C8F8C8D9D8D0197F1F79D8F8C8FA5
:104AC0008E8D9F8D01979F8F8E8F8E8D9F8D0097DE
:104AD00069F724C068A179A18AA19BA10E94113C19
:104AE000DC01CB019F8F8E8F8E8D9F8D9B8F8A8F48
:104AF0008A8D9B8D0197F1F79B8F8A8F0FC069A5D7
:104B00007AA58BA59CA50E94113CDC01CB0188A74E
:104B100088A5898F898D8A95F1F7898FA5E3B0E003
:104B2000E5E3F0E080818F778C9380E090E0A0E86F
:104B3000BFE38D8B9E8BAF8BB88F6D897E898F89FC
:104B4000988D2AEF3DEE4BE650E40E94583DDC0183
:104B5000CB01898B9A8BAB8BBC8B69897A898B89CA
:104B60009C8920E030E040E85FE30E949D3B882381
:104B70001CF481E0888B91C069897A898B899C8932
:104B800020E030E04FE753E40E944D3D18160CF052
:104B90007BC06D897E898F89988D20E030E04AE75F
:104BA00054E40E94A43BDC01CB018C879D87AE8737
:104BB000BF876C857D858E859F852DEC3CEC4CE216
:104BC00055E40E94583DDC01CB0188879987AA876C
:104BD000BB87688579858A859B8520E030E040E841
:104BE0005FE30E949D3B88232CF481E090E09F834B
:104BF0008E833FC0688579858A859B8520E03FEF5D
:104C00004FE757E40E944D3D18164CF56C857D85A5
:104C10008E859F8520E030E040E251E40E94583DBF
:104C2000DC01CB01BC01CD010E94113CDC01CB01B8
:104C30009F838E830FC084E191E09D838C838C8160
:104C40009D810197F1F79D838C838E819F810197D0
:104C50009F838E838E819F81009769F724C068852A
:104C600079858A859B850E94113CDC01CB019F835D
:104C70008E838E819F819B838A838A819B8101970A
:104C8000F1F79B838A830FC069897A898B899C8914
:104C90000E94113CDC01CB01888B88898983898142
:104CA0008A95F1F789830E94511BFE01E95AFF4F53
:104CB00080818C6060E00E94151688E260E00E94AE
:104CC0001516C95ADF4F0FB6F894DEBF0FBECDBF21
:104CD000CF91DF911F910F910895DF93CF9300D073
:104CE000CDB7DEB79A8389830BC0E981FA818081D1
:104CF00061E00E94151689819A8101969A838983C1
:104D0000E981FA818081882381F70F900F90CF91FC
:104D1000DF910895DF93CF93CDB7DEB72D970FB610
:104D2000F894DEBF0FBECDBF9B878A877D876C87D7
:104D300085E0FE013596DF01282F1D922A95E9F7BF
:104D400084E090E09C838B831A8219821EC0EB81E1
:104D5000FC818A859B852AE030E0B9010E944B3EA8
:104D6000282FCE010596E80FF91F20838A859B85A1
:104D70002AE030E0B9010E944B3ECB019B878A8735
:104D80008B819C8101979C838B838A859B8500976F
:104D9000F1F68C859D85AFEF8F3F9A0789F405C0AA
:104DA00089819A8101969A83898329813A81CE01EA
:104DB0000596FC01E20FF31F8081882389F308C068
:104DC00085E090E02C853D85821B930B9A83898337
:104DD0008A859B85992324F48DE261E00E94151653
:104DE00089819A819C838B8311C02B813C81CE0168
:104DF0000596FC01E20FF31F8081805D61E00E9457
:104E000015168B819C8101969C838B838B819C8161
:104E10008530910554F32D960FB6F894DEBF0FBE82
:104E2000CDBFCF91DF910895DF93CF9300D0CDB761
:104E3000DEB789836A838981883268F48A8188230E
:104E400019F0898180648983898180688983898157
:104E500060E00E9415160F900F90CF91DF9108959A
:104E6000DF93CF93CDB7DEB783E50E9462390E940E
:104E7000E539CF91DF910895DF93CF9300D00F9262
:104E8000CDB7DEB789837B836A8389810E946239CB
:104E90008A819B81892F990F990B0E9462398A819F
:104EA0000E9462390E94E5390F900F900F90CF91C8
:104EB000DF910895DF93CF9300D00F92CDB7DEB787
:104EC00089837B836A8389810E9462398A810E94F7
:104ED00062390E94E5390F900F900F90CF91DF91CA
:104EE0000895DF93CF93CDB7DEB729970FB6F89427
:104EF000DEBF0FBECDBF88E50E9462390E94E53952
:104F0000898789858835F1F40E94E539882F90E0FA
:104F100098878F830E94E539882F90E09E838D8348
:104F20008F8198859C838B838B819C81982F882788
:104F30009C838B832B813C818D819E81822B932B43
:104F40009A83898389819A8129960FB6F894DEBF66
:104F50000FBECDBFCF91DF910895DF93CF93CDB733
:104F6000DEB729970FB6F894DEBF0FBECDBF89E537
:104F70000E9462390E94E539898789858935F1F473
:104F80000E94E539882F90E098878F830E94E53949
:104F9000882F90E09E838D838F8198859C838B835F
:104FA0008B819C81982F88279C838B832B813C81CC
:104FB0008D819E81822B932B9A83898389819A810B
:104FC00029960FB6F894DEBF0FBECDBFCF91DF910B
:104FD0000895DF93CF93CDB7DEB761970FB6F894FE
:104FE000DEBF0FBECDBF8FE40E9462390E94E5395B
:104FF000898B89898F3409F07FC00E94E539882F19
:1050000090E0988B8F870E94E539882F90E09E87EB
:105010008D870E94E539882F90E09C878B870E94BE
:10502000E539882F90E09A8789878F859889AA2704
:1050300097FDA095BA2F8D839E83AF83B8878D810E
:105040009E81AF81B885BA2FA92F982F88278D838D
:105050009E83AF83B8878D859E859C01442737FD4D
:105060004095542F8D819E81AF81B885822B932BE3
:10507000A42BB52B8D839E83AF83B8878D819E81B2
:10508000AF81B885BA2FA92F982F88278D839E834B
:10509000AF83B8878B859C859C01442737FD40955D
:1050A000542F8D819E81AF81B885822B932BA42BA9
:1050B000B52B8D839E83AF83B8878D819E81AF8111
:1050C000B885BA2FA92F982F88278D839E83AF8309
:1050D000B88789859A859C01442737FD4095542FD0
:1050E0008D819E81AF81B885822B932BA42BB52B0C
:1050F00089839A83AB83BC8389819A81AB81BC818C
:10510000BC01CD0161960FB6F894DEBF0FBECDBFD6
:10511000CF91DF910895DF93CF9300D0CDB7DEB765
:105120000E94E927DC01CB0128E631E040E050E0B5
:10513000BC01CD010E942C3EDC01CB012CEB3EEDED
:1051400040E050E0BC01CD010E945E3EDA01C901A1
:105150009A83898389819A810F900F90CF91DF91F3
:105160000895DF93CF93CDB7DEB729970FB6F894A4
:10517000DEBF0FBECDBF87E40E9462390E94E539D1
:10518000898789858734F1F40E94E539882F90E07A
:1051900098878F830E94E539882F90E09E838D83C6
:1051A0008F8198859C838B838B819C81982F882706
:1051B0009C838B832B813C818D819E81822B932BC1
:1051C0009A83898389819A8129960FB6F894DEBFE4
:1051D0000FBECDBFCF91DF910895DF93CF93CDB7B1
:1051E000DEB72E970FB6F894DEBF0FBECDBF9A87FD
:1051F00089877C876B875E874D878D859E85AA27EB
:1052000097FDA095BA2F2CEB3EED40E050E0BC019D
:10521000CD010E942C3EDC01CB0128E631E040E0CC
:1052200050E0BC01CD010E945E3EDA01C9018D83D0
:105230009E83AF83B88729853A8589E4B9010E94A6
:105240003C270E947127AA2797FDA095BA2F898332
:105250009A83AB83BC8389859A8502979C014427F6
:1052600037FD4095542F89819A81AB81BC8182178B
:105270009307A407B507FCF289859A8502969C01DD
:10528000442737FD4095542F89819A81AB81BC8199
:10529000281739074A075B0774F22B853C858AE497
:1052A000B9010E943C270E94AD27AA2797FDA0952F
:1052B000BA2F89839A83AB83BC838B859C850197A6
:1052C0009C01442737FD4095542F89819A81AB81F9
:1052D000BC8182179307A407B507FCF28B859C85D8
:1052E00001969C01442737FD4095542F89819A816E
:1052F000AB81BC81281739074A075B0774F22D85FB
:105300003E858BE4B9010E943C270E94E927DC011D
:10531000CB0189839A83AB83BC838D819E81AF81CE
:10532000B8859C01AD0121503040404050408981FA
:105330009A81AB81BC8182179307A407B507FCF261
:105340008D819E81AF81B8859C01AD012F5F3F4F5C
:105350004F4F5F4F89819A81AB81BC8128173907F4
:105360004A075B0764F22E960FB6F894DEBF0FBEB5
:10537000CDBFCF91DF910895DF93CF9300D0CDB70C
:10538000DEB79A83898389819A8199233CF4898144
:105390009A81909581959F4F9A83898389819A817B
:1053A0000F900F90CF91DF910895EF92FF920F939E
:1053B0001F93DF93CF93CDB7DEB72A970FB6F8943C
:1053C000DEBF0FBECDBF98878F837A8769871E8225
:1053D0001D820E9471279C838B830E94AD279A8334
:1053E00089832F8138858B819C8128173907B1F4F7
:1053F00029853A8589819A812817390779F40E948D
:10540000302781E060E00E94151680E060E00E9495
:10541000142782E591E00E946D26FFCF2F81388509
:105420008B819C81A901481B590BCA01AA2797FDB2
:10543000A095BA2FBC01CD010E943F3C7B018C019D
:1054400029853A8589819A81A901481B590BCA018E
:10545000AA2797FDA095BA2FBC01CD010E943F3C21
:105460009B01AC01C801B7010E944A3BDC01CB01A2
:10547000BC01CD012BED3FE049EC50E40E94A43B80
:10548000DC01CB01BC01CD0120E030E044EB53E472
:105490000E94583DDC01CB01BC01CD010E940C3CB7
:1054A000DC01CB019E838D838D819E812A960FB670
:1054B000F894DEBF0FBECDBFCF91DF911F910F914A
:1054C000FF90EF900895DF93CF9300D000D0CDB739
:1054D000DEB786E564EC79E00E943C2784E560E075
:1054E00070E00E943C270E94E927DC01CB01898300
:1054F0009A83AB83BC8389819A81AB81BC818135DE
:105500002CED920720E0A20720E0B207C4F48981C5
:105510009A81AB81BC818C302EEF92072FEFA207CE
:105520002FEFB20704F389819A81AB81BC81853F5B
:1055300021E0920720E0A20720E0B207A4F60F9036
:105540000F900F900F90CF91DF910895DF93CF933D
:10555000CDB7DEB7E5970FB6F894DEBF0FBECDBF6F
:105560009CAB8BAB86E564EC79E00E943C27809194
:105570005101882351F08BA99CA9AA2797FDA095DA
:10558000BA2F89A39AA3ABA3BCA389A19AA1ABA16B
:10559000BCA1181619061A061B06ACF48BA99CA907
:1055A000AA2797FDA095BA2F89A39AA3ABA3BCA362
:1055B0008BA99CA99923E4F48BA99CA988599E4F97
:1055C0009CAB8BAB15C08BA99CA9AA2797FDA09576
:1055D000BA2F89A39AA3ABA3BCA38BA99CA9181625
:1055E000190634F08BA99CA988599E4F9CAB8BABB4
:1055F0000E948B28AA2797FDA095BA2F8D8F9E8F8A
:10560000AF8FB8A32BA93CA984E5B9010E943C2720
:105610008BA99CA9AA2797FDA095BA2F2CEB3EED4C
:1056200040E050E0BC01CD010E942C3EDC01CB01EA
:1056300028E631E040E050E0BC01CD010E945E3E32
:10564000DA01C9018DA39EA3AFA3B8A71AAA19AA0C
:1056500080E090E0A0EAB0E4898F9A8FAB8FBC8F96
:10566000698D7A8D8B8D9C8D2DEC3CEC4CE255E454
:105670000E94583DDC01CB018D8B9E8BAF8BB88F88
:105680006D897E898F89988D20E030E040E85FE366
:105690000E949D3B88232CF481E090E09C8B8B8BB7
:1056A0003FC06D897E898F89988D20E03FEF4FE75D
:1056B00057E40E944D3D18164CF5698D7A8D8B8DFF
:1056C0009C8D20E030E040E251E40E94583DDC0136
:1056D000CB01BC01CD010E94113CDC01CB019C8BB4
:1056E0008B8B0FC084E191E09A8B898B89899A8991
:1056F0000197F1F79A8B898B8B899C8901979C8BF9
:105700008B8B8B899C89009769F714C06D897E8982
:105710008F89988D0E94113CDC01CB019C8B8B8B77
:105720008B899C89988B8F878F8598890197F1F752
:10573000988B8F870E94E927DC01CB0189A79AA764
:10574000ABA7BCA789A59AA5ABA5BCA5BB2364F450
:1057500089A59AA5ABA5BCA584549142AF4FBF4F74
:1057600089A79AA7ABA7BCA78DA59EA5AFA5B8A9E9
:105770009C01AD012E5C3F4F4F4F5F4F89A59AA50D
:10578000ABA5BCA582179307A407B5078CF58DA51B
:105790009EA5AFA5B8A99C01AD0122533040404061
:1057A000504089A59AA5ABA5BCA5281739074A077B
:1057B0005B07F4F489A99AA901969AAB89AB89A9E8
:1057C0009AA98D349105A1F48D8D9E8DAF8DB8A1D0
:1057D0000097A105B10529F40E94632A81E08DABF1
:1057E000C2C08D8D9E8D0E94A62A81E08DABBBC06C
:1057F00089A59AA5ABA5BCA58DA79EA7AFA7B8AB59
:1058000080915101882351F08CEB9EEDA0E0B0E037
:1058100089A79AA7ABA7BCA7109251018DA19EA101
:10582000AFA1B8A59C01AD01225C31404040504081
:1058300089A59AA5ABA5BCA582179307A407B507B0
:105840000CF406CF8DA19EA1AFA1B8A59C01AD011E
:105850002E533E4F4F4F5F4F89A59AA5ABA5BCA5D0
:10586000281739074A075B070CF4F2CE80916E01C6
:10587000882331F48BA99CA99093700180936F01C8
:1058800080E090E0A8ECB2E48B879C87AD87BE8770
:105890006B857C858D859E852DEC3CEC4CE255E43A
:1058A0000E94583DDC01CB018F839887A987BA8776
:1058B0006F81788589859A8520E030E040E85FE354
:1058C0000E949D3B88232CF481E090E09E838D8391
:1058D0003FC06F81788589859A8520E03FEF4FE74B
:1058E00057E40E944D3D18164CF56B857C858D85DF
:1058F0009E8520E030E040E251E40E94583DDC010A
:10590000CB01BC01CD010E94113CDC01CB019E8387
:105910008D830FC084E191E09C838B838B819C817C
:105920000197F1F79C838B838D819E8101979E83E4
:105930008D838D819E81009769F714C06F81788572
:1059400089859A850E94113CDC01CB019E838D8361
:105950008D819E819A83898389819A810197F1F74C
:105960009A8389831DAA8DA9E5960FB6F894DEBFA8
:105970000FBECDBFCF91DF910895EF92FF920F93AD
:105980001F93DF93CF93CDB7DEB7E7970FB6F894A9
:10599000DEBF0FBECDBF9EA78DA778AB6FA749AB6B
:1059A0003BAB2AAB1DAB0CABEEAA1AA619A618A6E8
:1059B0001FA21CA21BA21AA219A288E290E0988B37
:1059C0008F871092720189A98130C9F48DA59EA597
:1059D0002FA538A9B9010E94D52998A38F8F8F8D43
:1059E00098A1009719F40E94632A25C08F8D98A171
:1059F0000E94A62A8823F9F021E02FABECC28DA5E6
:105A00009EA52FA538A9B9010E94D52998A38F8FEB
:105A10008F8D98A1843B910519F40E94632A0BC0D5
:105A20008F8D98A18C549F4F0E94A62A882319F02D
:105A300041E04FABD0C280E090E0A0EAB0E48B87B9
:105A40009C87AD87BE876B857C858D859E852DEC7B
:105A50003CEC4CE255E40E94583DDC01CB018F83C5
:105A60009887A987BA876F81788589859A8520E08C
:105A700030E040E85FE30E949D3B88232CF481E006
:105A800090E09E838D833FC06F81788589859A855C
:105A900020E03FEF4FE757E40E944D3D18164CF5CC
:105AA0006B857C858D859E8520E030E040E251E469
:105AB0000E94583DDC01CB01BC01CD010E94113C8C
:105AC000DC01CB019E838D830FC084E191E09C8338
:105AD0008B838B819C810197F1F79C838B838D81D4
